{
  "_format": "hh-sol-artifact-1",
  "contractName": "DarkEther",
  "sourceName": "contracts/DarkEther.sol",
  "abi": [
    {
      "inputs": [],
      "stateMutability": "nonpayable",
      "type": "constructor"
    },
    {
      "anonymous": false,
      "inputs": [
        {
          "indexed": true,
          "internalType": "address",
          "name": "account",
          "type": "address"
        },
        {
          "indexed": true,
          "internalType": "address",
          "name": "operator",
          "type": "address"
        },
        {
          "indexed": false,
          "internalType": "bool",
          "name": "approved",
          "type": "bool"
        }
      ],
      "name": "ApprovalForAll",
      "type": "event"
    },
    {
      "anonymous": false,
      "inputs": [
        {
          "indexed": true,
          "internalType": "address",
          "name": "minter",
          "type": "address"
        },
        {
          "indexed": true,
          "internalType": "uint256",
          "name": "entityClass",
          "type": "uint256"
        },
        {
          "indexed": true,
          "internalType": "uint256",
          "name": "amount",
          "type": "uint256"
        }
      ],
      "name": "EntityMinted",
      "type": "event"
    },
    {
      "anonymous": false,
      "inputs": [
        {
          "indexed": true,
          "internalType": "address",
          "name": "claimer",
          "type": "address"
        },
        {
          "indexed": true,
          "internalType": "uint256",
          "name": "amount",
          "type": "uint256"
        }
      ],
      "name": "MintRewardClaimed",
      "type": "event"
    },
    {
      "anonymous": false,
      "inputs": [
        {
          "indexed": true,
          "internalType": "address",
          "name": "previousOwner",
          "type": "address"
        },
        {
          "indexed": true,
          "internalType": "address",
          "name": "newOwner",
          "type": "address"
        }
      ],
      "name": "OwnershipTransferred",
      "type": "event"
    },
    {
      "anonymous": false,
      "inputs": [
        {
          "indexed": true,
          "internalType": "address",
          "name": "operator",
          "type": "address"
        },
        {
          "indexed": true,
          "internalType": "address",
          "name": "from",
          "type": "address"
        },
        {
          "indexed": true,
          "internalType": "address",
          "name": "to",
          "type": "address"
        },
        {
          "indexed": false,
          "internalType": "uint256[]",
          "name": "ids",
          "type": "uint256[]"
        },
        {
          "indexed": false,
          "internalType": "uint256[]",
          "name": "values",
          "type": "uint256[]"
        }
      ],
      "name": "TransferBatch",
      "type": "event"
    },
    {
      "anonymous": false,
      "inputs": [
        {
          "indexed": true,
          "internalType": "address",
          "name": "operator",
          "type": "address"
        },
        {
          "indexed": true,
          "internalType": "address",
          "name": "from",
          "type": "address"
        },
        {
          "indexed": true,
          "internalType": "address",
          "name": "to",
          "type": "address"
        },
        {
          "indexed": false,
          "internalType": "uint256",
          "name": "id",
          "type": "uint256"
        },
        {
          "indexed": false,
          "internalType": "uint256",
          "name": "value",
          "type": "uint256"
        }
      ],
      "name": "TransferSingle",
      "type": "event"
    },
    {
      "anonymous": false,
      "inputs": [
        {
          "indexed": false,
          "internalType": "string",
          "name": "value",
          "type": "string"
        },
        {
          "indexed": true,
          "internalType": "uint256",
          "name": "id",
          "type": "uint256"
        }
      ],
      "name": "URI",
      "type": "event"
    },
    {
      "inputs": [],
      "name": "MINIMUM_MINTS_FOR_CLAIM",
      "outputs": [
        {
          "internalType": "uint256",
          "name": "",
          "type": "uint256"
        }
      ],
      "stateMutability": "view",
      "type": "function"
    },
    {
      "inputs": [],
      "name": "MINTS_SINCE_CLAIM_THRESHOLD",
      "outputs": [
        {
          "internalType": "uint256",
          "name": "",
          "type": "uint256"
        }
      ],
      "stateMutability": "view",
      "type": "function"
    },
    {
      "inputs": [],
      "name": "MINT_LIMIT",
      "outputs": [
        {
          "internalType": "uint256",
          "name": "",
          "type": "uint256"
        }
      ],
      "stateMutability": "view",
      "type": "function"
    },
    {
      "inputs": [],
      "name": "TRANSFER_TO_TREASURY_MINT_THRESHOLD",
      "outputs": [
        {
          "internalType": "uint256",
          "name": "",
          "type": "uint256"
        }
      ],
      "stateMutability": "view",
      "type": "function"
    },
    {
      "inputs": [
        {
          "internalType": "address",
          "name": "account",
          "type": "address"
        },
        {
          "internalType": "uint256",
          "name": "id",
          "type": "uint256"
        }
      ],
      "name": "balanceOf",
      "outputs": [
        {
          "internalType": "uint256",
          "name": "",
          "type": "uint256"
        }
      ],
      "stateMutability": "view",
      "type": "function"
    },
    {
      "inputs": [
        {
          "internalType": "address[]",
          "name": "accounts",
          "type": "address[]"
        },
        {
          "internalType": "uint256[]",
          "name": "ids",
          "type": "uint256[]"
        }
      ],
      "name": "balanceOfBatch",
      "outputs": [
        {
          "internalType": "uint256[]",
          "name": "",
          "type": "uint256[]"
        }
      ],
      "stateMutability": "view",
      "type": "function"
    },
    {
      "inputs": [],
      "name": "claimMintReward",
      "outputs": [],
      "stateMutability": "nonpayable",
      "type": "function"
    },
    {
      "inputs": [
        {
          "internalType": "uint256",
          "name": "id",
          "type": "uint256"
        }
      ],
      "name": "exists",
      "outputs": [
        {
          "internalType": "bool",
          "name": "",
          "type": "bool"
        }
      ],
      "stateMutability": "view",
      "type": "function"
    },
    {
      "inputs": [],
      "name": "getAWethBalance",
      "outputs": [
        {
          "internalType": "uint256",
          "name": "",
          "type": "uint256"
        }
      ],
      "stateMutability": "view",
      "type": "function"
    },
    {
      "inputs": [
        {
          "internalType": "uint256",
          "name": "tokenId",
          "type": "uint256"
        }
      ],
      "name": "getDefaultName",
      "outputs": [
        {
          "internalType": "string",
          "name": "",
          "type": "string"
        }
      ],
      "stateMutability": "view",
      "type": "function"
    },
    {
      "inputs": [],
      "name": "getDefaultNames",
      "outputs": [
        {
          "internalType": "string[]",
          "name": "",
          "type": "string[]"
        }
      ],
      "stateMutability": "view",
      "type": "function"
    },
    {
      "inputs": [
        {
          "internalType": "address",
          "name": "minterAddress",
          "type": "address"
        }
      ],
      "name": "getMintsForAddress",
      "outputs": [
        {
          "internalType": "uint256",
          "name": "",
          "type": "uint256"
        }
      ],
      "stateMutability": "view",
      "type": "function"
    },
    {
      "inputs": [
        {
          "internalType": "uint256",
          "name": "darkEthClass",
          "type": "uint256"
        }
      ],
      "name": "getMintsForClass",
      "outputs": [
        {
          "internalType": "uint256",
          "name": "",
          "type": "uint256"
        }
      ],
      "stateMutability": "view",
      "type": "function"
    },
    {
      "inputs": [],
      "name": "getRewardAvailability",
      "outputs": [
        {
          "internalType": "bool",
          "name": "",
          "type": "bool"
        }
      ],
      "stateMutability": "view",
      "type": "function"
    },
    {
      "inputs": [
        {
          "internalType": "address",
          "name": "account",
          "type": "address"
        },
        {
          "internalType": "address",
          "name": "operator",
          "type": "address"
        }
      ],
      "name": "isApprovedForAll",
      "outputs": [
        {
          "internalType": "bool",
          "name": "",
          "type": "bool"
        }
      ],
      "stateMutability": "view",
      "type": "function"
    },
    {
      "inputs": [],
      "name": "mintCounter",
      "outputs": [
        {
          "internalType": "uint256",
          "name": "",
          "type": "uint256"
        }
      ],
      "stateMutability": "view",
      "type": "function"
    },
    {
      "inputs": [],
      "name": "mintPrice",
      "outputs": [
        {
          "internalType": "uint256",
          "name": "",
          "type": "uint256"
        }
      ],
      "stateMutability": "view",
      "type": "function"
    },
    {
      "inputs": [],
      "name": "newMintsSinceClaim",
      "outputs": [
        {
          "internalType": "uint256",
          "name": "",
          "type": "uint256"
        }
      ],
      "stateMutability": "view",
      "type": "function"
    },
    {
      "inputs": [],
      "name": "owner",
      "outputs": [
        {
          "internalType": "address",
          "name": "",
          "type": "address"
        }
      ],
      "stateMutability": "view",
      "type": "function"
    },
    {
      "inputs": [],
      "name": "renounceOwnership",
      "outputs": [],
      "stateMutability": "nonpayable",
      "type": "function"
    },
    {
      "inputs": [],
      "name": "requestMint",
      "outputs": [],
      "stateMutability": "payable",
      "type": "function"
    },
    {
      "inputs": [
        {
          "internalType": "address",
          "name": "from",
          "type": "address"
        },
        {
          "internalType": "address",
          "name": "to",
          "type": "address"
        },
        {
          "internalType": "uint256[]",
          "name": "ids",
          "type": "uint256[]"
        },
        {
          "internalType": "uint256[]",
          "name": "amounts",
          "type": "uint256[]"
        },
        {
          "internalType": "bytes",
          "name": "data",
          "type": "bytes"
        }
      ],
      "name": "safeBatchTransferFrom",
      "outputs": [],
      "stateMutability": "nonpayable",
      "type": "function"
    },
    {
      "inputs": [
        {
          "internalType": "address",
          "name": "from",
          "type": "address"
        },
        {
          "internalType": "address",
          "name": "to",
          "type": "address"
        },
        {
          "internalType": "uint256",
          "name": "id",
          "type": "uint256"
        },
        {
          "internalType": "uint256",
          "name": "amount",
          "type": "uint256"
        },
        {
          "internalType": "bytes",
          "name": "data",
          "type": "bytes"
        }
      ],
      "name": "safeTransferFrom",
      "outputs": [],
      "stateMutability": "nonpayable",
      "type": "function"
    },
    {
      "inputs": [
        {
          "internalType": "address",
          "name": "operator",
          "type": "address"
        },
        {
          "internalType": "bool",
          "name": "approved",
          "type": "bool"
        }
      ],
      "name": "setApprovalForAll",
      "outputs": [],
      "stateMutability": "nonpayable",
      "type": "function"
    },
    {
      "inputs": [
        {
          "internalType": "bytes4",
          "name": "interfaceId",
          "type": "bytes4"
        }
      ],
      "name": "supportsInterface",
      "outputs": [
        {
          "internalType": "bool",
          "name": "",
          "type": "bool"
        }
      ],
      "stateMutability": "view",
      "type": "function"
    },
    {
      "inputs": [
        {
          "internalType": "uint256",
          "name": "id",
          "type": "uint256"
        }
      ],
      "name": "totalSupply",
      "outputs": [
        {
          "internalType": "uint256",
          "name": "",
          "type": "uint256"
        }
      ],
      "stateMutability": "view",
      "type": "function"
    },
    {
      "inputs": [
        {
          "internalType": "address",
          "name": "newOwner",
          "type": "address"
        }
      ],
      "name": "transferOwnership",
      "outputs": [],
      "stateMutability": "nonpayable",
      "type": "function"
    },
    {
      "inputs": [],
      "name": "transferToTreasury",
      "outputs": [],
      "stateMutability": "nonpayable",
      "type": "function"
    },
    {
      "inputs": [
        {
          "internalType": "uint256",
          "name": "",
          "type": "uint256"
        }
      ],
      "name": "uri",
      "outputs": [
        {
          "internalType": "string",
          "name": "",
          "type": "string"
        }
      ],
      "stateMutability": "view",
      "type": "function"
    }
  ],
  "bytecode": "0x6009805475030ba81f1c18d280636f32af80b9aad02cf0854e000062010000600160b01b0319909116178155600a80546001600160a01b031916720fc975ee9d37fc1508dcd9e33a56613f0ee25a1790556101e0908152680456c656d656e7420360bc1b610200526080908152600f6102208181526e10db185cdcc80c48115b195b595b9d608a1b6102405260a0526102608181526e10db185cdcc80c88115b195b595b9d608a1b6102805260c0526102a08181526e10db185cdcc80cc8115b195b595b9d608a1b6102c05260e0526102e08181526e10db185cdcc80d08115b195b595b9d608a1b61030052610100526103208181526e10db185cdcc80d48115b195b595b9d608a1b61034052610120526103609081526e10db185cdcc80d88115b195b595b9d608a1b610380526101405260106103a08181526f436c6173732037204f7267616e69736d60801b6103c052610160526103e08181526f436c6173732038204f7267616e69736d60801b61040052610180526104209081526f436c6173732039204f7267616e69736d60801b610440526101a0526104a0604052600b6104608181526a04f7267616e69736d2031360ac1b610480526101c052620001cc91600e9162000346565b5060408051610160810182526001808252602082018190526002928201839052600a606083018190526080830152606460a0830181905260c0830152600560e083015261010082019290925261012081018290526101408101919091526200023990600f90600b620003aa565b503480156200024757600080fd5b506040805160208101909152600081526200026281620002db565b5060016004556200027333620002f4565b600d80546001600160a01b031990811673b53c1a33016b2dc2ff3653530bff1848a515c8c517909155600b805490911673cc9a0b7c43dc2a5f023bb9b738e45b0ef6b06e041790556000600881905560068190556007556009805461ffff191690556200052f565b8051620002f0906002906020840190620003fb565b5050565b600580546001600160a01b038381166001600160a01b0319831681179093556040519116919082907f8be0079c531659141344cd1fd0a4f28419497f9722a3daafe3b4186f6b6457e090600090a35050565b82805482825590600052602060002090810192821562000398579160200282015b8281111562000398578251805162000387918491602090910190620003fb565b509160200191906001019062000367565b50620003a692915062000478565b5090565b828054828255906000526020600020908101928215620003ed579160200282015b82811115620003ed578251829060ff16905591602001919060010190620003cb565b50620003a692915062000499565b8280546200040990620004f2565b90600052602060002090601f0160209004810192826200042d5760008555620003ed565b82601f106200044857805160ff1916838001178555620003ed565b82800160010185558215620003ed579182015b82811115620003ed5782518255916020019190600101906200045b565b80821115620003a65760006200048f8282620004b0565b5060010162000478565b5b80821115620003a657600081556001016200049a565b508054620004be90620004f2565b6000825580601f10620004cf575050565b601f016020900490600052602060002090810190620004ef919062000499565b50565b600181811c908216806200050757607f821691505b602082108114156200052957634e487b7160e01b600052602260045260246000fd5b50919050565b612a50806200053f6000396000f3fe6080604052600436106101815760003560e01c8063651c0e5f116100d7578063998ffbd011610085578063998ffbd014610430578063a22cb46514610446578063afb7bed914610466578063bd85b0391461046e578063c92960cf1461049b578063e985e9c5146104b0578063f242432a146104f9578063f2fde38b1461051957600080fd5b8063651c0e5f146103655780636817c76c1461037a5780636ff8616214610395578063715018a6146103aa5780637401a3dd146103bf5780638da5cb5b146103f557806390542c1e1461041b57600080fd5b80633fc3023c116101345780633fc3023c1461028f57806346aa52ce146102b1578063485593ba146102c75780634e1273f4146102dc5780634f558e791461030957806352c7f8dc1461033857806353a911361461034d57600080fd5b8062fdd58e1461018657806301ffc9a7146101b957806302775240146101e95780630b5506c4146102005780630e89341c146102205780632e87e09d1461024d5780632eb2c2d61461026d575b600080fd5b34801561019257600080fd5b506101a66101a13660046122bc565b610539565b6040519081526020015b60405180910390f35b3480156101c557600080fd5b506101d96101d43660046123d7565b6105d0565b60405190151581526020016101b0565b3480156101f557600080fd5b506101a66207a12081565b34801561020c57600080fd5b506101a661021b366004612411565b610622565b34801561022c57600080fd5b5061024061023b366004612411565b610661565b6040516101b0919061263e565b34801561025957600080fd5b50610240610268366004612411565b6106f5565b34801561027957600080fd5b5061028d610288366004612179565b610749565b005b34801561029b57600080fd5b506102a46107e0565b6040516101b0919061259b565b3480156102bd57600080fd5b506101a660065481565b3480156102d357600080fd5b506101a6600a81565b3480156102e857600080fd5b506102fc6102f73660046122e8565b6108b9565b6040516101b091906125fd565b34801561031557600080fd5b506101d9610324366004612411565b600090815260036020526040902054151590565b34801561034457600080fd5b5061028d6109e2565b34801561035957600080fd5b5060095460ff166101d9565b34801561037157600080fd5b506101a6610b93565b34801561038657600080fd5b506101a6660e35fa931a000081565b3480156103a157600080fd5b5061028d610c1f565b3480156103b657600080fd5b5061028d610fb4565b3480156103cb57600080fd5b506101a66103da366004612106565b6001600160a01b031660009081526011602052604090205490565b34801561040157600080fd5b506005546001600160a01b03166040516101b091906124cb565b34801561042757600080fd5b506101a6606481565b34801561043c57600080fd5b506101a660075481565b34801561045257600080fd5b5061028d61046136600461228e565b610fea565b61028d6110c1565b34801561047a57600080fd5b506101a6610489366004612411565b60009081526003602052604090205490565b3480156104a757600080fd5b506101a6611195565b3480156104bc57600080fd5b506101d96104cb366004612140565b6001600160a01b03918216600090815260016020908152604080832093909416825291909152205460ff1690565b34801561050557600080fd5b5061028d610514366004612226565b6111a6565b34801561052557600080fd5b5061028d610534366004612106565b61122d565b60006001600160a01b0383166105aa5760405162461bcd60e51b815260206004820152602b60248201527f455243313135353a2062616c616e636520717565727920666f7220746865207a60448201526a65726f206164647265737360a81b60648201526084015b60405180910390fd5b506000908152602081815260408083206001600160a01b03949094168352929052205490565b60006001600160e01b03198216636cdb3d1360e11b148061060157506001600160e01b031982166303a24d0760e21b145b8061061c57506301ffc9a760e01b6001600160e01b03198316145b92915050565b600061062d826112c5565b151560011461064e5760405162461bcd60e51b81526004016105a190612699565b5060009081526010602052604090205490565b60606002805461067090612854565b80601f016020809104026020016040519081016040528092919081815260200182805461069c90612854565b80156106e95780601f106106be576101008083540402835291602001916106e9565b820191906000526020600020905b8154815290600101906020018083116106cc57829003601f168201915b50505050509050919050565b6060610700826112c5565b15156001146107215760405162461bcd60e51b81526004016105a190612699565b600e828154811061073457610734612910565b90600052602060002001805461067090612854565b6001600160a01b038516331480610765575061076585336104cb565b6107cc5760405162461bcd60e51b815260206004820152603260248201527f455243313135353a207472616e736665722063616c6c6572206973206e6f74206044820152711bdddb995c881b9bdc88185c1c1c9bdd995960721b60648201526084016105a1565b6107d985858585856112e0565b5050505050565b6060600e805480602002602001604051908101604052809291908181526020016000905b828210156108b057838290600052602060002001805461082390612854565b80601f016020809104026020016040519081016040528092919081815260200182805461084f90612854565b801561089c5780601f106108715761010080835404028352916020019161089c565b820191906000526020600020905b81548152906001019060200180831161087f57829003601f168201915b505050505081526020019060010190610804565b50505050905090565b6060815183511461091e5760405162461bcd60e51b815260206004820152602960248201527f455243313135353a206163636f756e747320616e6420696473206c656e677468604482015268040dad2e6dac2e8c6d60bb1b60648201526084016105a1565b600083516001600160401b0381111561093957610939612926565b604051908082528060200260200182016040528015610962578160200160208202803683370190505b50905060005b84518110156109da576109ad85828151811061098657610986612910565b60200260200101518583815181106109a0576109a0612910565b6020026020010151610539565b8282815181106109bf576109bf612910565b60209081029190910101526109d3816128b5565b9050610968565b509392505050565b60026004541415610a055760405162461bcd60e51b81526004016105a1906127af565b600260045533600090815260116020526040902054600a1115610a885760405162461bcd60e51b815260206004820152603560248201527f596f75206d757374206d696e74206174206c6561737420352074696d65732074604482015274379038bab0b634b33c903337b9103932bbb0b9321760591b60648201526084016105a1565b6207a1206006541415610b0757610a9d6114bd565b1515600114610afa5760405162461bcd60e51b8152602060048201526024808201527f546865726520617265206e6f206d6f7265207265776172647320617661696c616044820152633136329760e11b60648201526084016105a1565b610b02611510565b610b8c565b60095460ff161515600114610b845760405162461bcd60e51b815260206004820152603d60248201527f5472616e73616374696f6e207468726573686f6c64206e6f74206d65742e205260448201527f6577617264732063757272656e746c7920756e617661696c61626c652e00000060648201526084016105a1565b610b8c611510565b6001600455565b6009546040516370a0823160e01b81526000916201000090046001600160a01b0316906370a0823190610bca9030906004016124cb565b60206040518083038186803b158015610be257600080fd5b505afa158015610bf6573d6000803e3d6000fd5b505050506040513d601f19601f82011682018060405250810190610c1a919061242a565b905090565b6005546001600160a01b03163314610c495760405162461bcd60e51b81526004016105a19061277a565b610c5760056207a120612821565b6006541015610cce5760405162461bcd60e51b815260206004820152603d60248201527f5468726573686f6c64206e6f74206d65742e205472616e736665722063616e6e60448201527f6f7420626520636f6d706c6574656420617420746869732074696d652e00000060648201526084016105a1565b6009546040516370a0823160e01b81526000916201000090046001600160a01b0316906370a0823190610d059030906004016124cb565b60206040518083038186803b158015610d1d57600080fd5b505afa158015610d31573d6000803e3d6000fd5b505050506040513d601f19601f82011682018060405250810190610d55919061242a565b11610dac5760405162461bcd60e51b815260206004820152602160248201527f436f6e74726163742068617320656d7074792061576574682062616c616e63656044820152601760f91b60648201526084016105a1565b600954600a546040516370a0823160e01b81526001600160a01b036201000090930483169263095ea7b392169083906370a0823190610def9030906004016124cb565b60206040518083038186803b158015610e0757600080fd5b505afa158015610e1b573d6000803e3d6000fd5b505050506040513d601f19601f82011682018060405250810190610e3f919061242a565b6040518363ffffffff1660e01b8152600401610e5c929190612582565b602060405180830381600087803b158015610e7657600080fd5b505af1158015610e8a573d6000803e3d6000fd5b505050506040513d601f19601f82011682018060405250810190610eae91906123ba565b50600954600a546040516370a0823160e01b81526001600160a01b036201000090930483169263a9059cbb92169083906370a0823190610ef29030906004016124cb565b60206040518083038186803b158015610f0a57600080fd5b505afa158015610f1e573d6000803e3d6000fd5b505050506040513d601f19601f82011682018060405250810190610f42919061242a565b6040518363ffffffff1660e01b8152600401610f5f929190612582565b602060405180830381600087803b158015610f7957600080fd5b505af1158015610f8d573d6000803e3d6000fd5b505050506040513d601f19601f82011682018060405250810190610fb191906123ba565b50565b6005546001600160a01b03163314610fde5760405162461bcd60e51b81526004016105a19061277a565b610fe860006117c8565b565b336001600160a01b03831614156110555760405162461bcd60e51b815260206004820152602960248201527f455243313135353a2073657474696e6720617070726f76616c20737461747573604482015268103337b91039b2b63360b91b60648201526084016105a1565b3360008181526001602090815260408083206001600160a01b03871680855290835292819020805460ff191686151590811790915590519081529192917f17307eab39ab6107e8899845ad3d59bd9653f200f220920489ca2b5937696c31910160405180910390a35050565b600260045414156110e45760405162461bcd60e51b81526004016105a1906127af565b60026004556006546207a1201161113d5760405162461bcd60e51b815260206004820152601c60248201527f4461726b204574686572206d696e74696e672066696e6973686564210000000060448201526064016105a1565b34660e35fa931a0000111561118d5760405162461bcd60e51b815260206004820152601660248201527526bab9ba1039b2b73210181718181a1032ba3432b91760511b60448201526064016105a1565b610b8c61181a565b6111a360056207a120612821565b81565b6001600160a01b0385163314806111c257506111c285336104cb565b6112205760405162461bcd60e51b815260206004820152602960248201527f455243313135353a2063616c6c6572206973206e6f74206f776e6572206e6f7260448201526808185c1c1c9bdd995960ba1b60648201526084016105a1565b6107d98585858585611938565b6005546001600160a01b031633146112575760405162461bcd60e51b81526004016105a19061277a565b6001600160a01b0381166112bc5760405162461bcd60e51b815260206004820152602660248201527f4f776e61626c653a206e6577206f776e657220697320746865207a65726f206160448201526564647265737360d01b60648201526084016105a1565b610fb1816117c8565b6000600a8211156112d857506000919050565b506001919050565b81518351146113425760405162461bcd60e51b815260206004820152602860248201527f455243313135353a2069647320616e6420616d6f756e7473206c656e677468206044820152670dad2e6dac2e8c6d60c31b60648201526084016105a1565b6001600160a01b0384166113685760405162461bcd60e51b81526004016105a1906126eb565b3360005b845181101561144f57600085828151811061138957611389612910565b6020026020010151905060008583815181106113a7576113a7612910565b602090810291909101810151600084815280835260408082206001600160a01b038e1683529093529190912054909150818110156113f75760405162461bcd60e51b81526004016105a190612730565b6000838152602081815260408083206001600160a01b038e8116855292528083208585039055908b16825281208054849290611434908490612809565b9250508190555050505080611448906128b5565b905061136c565b50846001600160a01b0316866001600160a01b0316826001600160a01b03167f4a39dc06d4c0dbc64b70af90fd698a233a518aa5d07e595d983b8c0526c8f7fb878760405161149f929190612610565b60405180910390a46114b5818787878787611a5e565b505050505050565b60095460009060ff610100909104161515600114156114dc5750600090565b6207a1206006541480156114f05750600047115b1561150a57506009805461ff001916610100179055600190565b50600090565b600047116115605760405162461bcd60e51b815260206004820152601a60248201527f436f6e74726163742062616c616e636520697320656d7074792e00000000000060448201526064016105a1565b4760006115796005611573600a85612821565b90611bc9565b90506000600d60009054906101000a90046001600160a01b03166001600160a01b0316630261bf8b6040518163ffffffff1660e01b815260040160206040518083038186803b1580156115cb57600080fd5b505afa1580156115df573d6000803e3d6000fd5b505050506040513d601f19601f820116820180604052508101906116039190612123565b600b5460405163474cf53d60e01b81526001600160a01b0380841660048301523060248301526000604483015292935091169063474cf53d9085906064016000604051808303818588803b15801561165a57600080fd5b505af115801561166e573d6000803e3d6000fd5b505060095460405163095ea7b360e01b8152620100009091046001600160a01b0316935063095ea7b392506116aa915033908690600401612582565b602060405180830381600087803b1580156116c457600080fd5b505af11580156116d8573d6000803e3d6000fd5b505050506040513d601f19601f820116820180604052508101906116fc91906123ba565b5060095460405163a9059cbb60e01b8152620100009091046001600160a01b03169063a9059cbb906117349033908690600401612582565b602060405180830381600087803b15801561174e57600080fd5b505af1158015611762573d6000803e3d6000fd5b505050506040513d601f19601f8201168201806040525081019061178691906123ba565b50600060078190556009805460ff19169055604051839133917fbe36bcfc51443d8893a6578da2e5eb021fdfbf5745d543fa97fb6bb0e871e82e9190a3505050565b600580546001600160a01b038381166001600160a01b0319831681179093556040519116919082907f8be0079c531659141344cd1fd0a4f28419497f9722a3daafe3b4186f6b6457e090600090a35050565b600061182c611827611bdc565b611c42565b9050600061183982611cc6565b90506000600f828154811061185057611850612910565b9060005260206000200154905061187833838360405180602001604052806000815250611d1d565b600082815260106020526040902054611892906001612809565b6000838152601060209081526040808320939093553382526011905220546118bb906001612809565b336000908152601160205260409020556006546118d9906001612809565b6006556007546118ea906001612809565b6007819055606411611904576009805460ff191660011790555b6040518190839033907f4d5a2cea2b0f70440c644d5b685214f7f50d250bd9fc27c724268cca179b41d390600090a4505050565b6001600160a01b03841661195e5760405162461bcd60e51b81526004016105a1906126eb565b3361197781878761196e88611d52565b6107d988611d52565b6000848152602081815260408083206001600160a01b038a168452909152902054838110156119b85760405162461bcd60e51b81526004016105a190612730565b6000858152602081815260408083206001600160a01b038b81168552925280832087850390559088168252812080548692906119f5908490612809565b909155505060408051868152602081018690526001600160a01b03808916928a821692918616917fc3d58168c5ae7397731d063d5bbf3d657854427343f4c083240f7aacaa2d0f62910160405180910390a4611a55828888888888611d9d565b50505050505050565b6001600160a01b0384163b156114b55760405163bc197c8160e01b81526001600160a01b0385169063bc197c8190611aa290899089908890889088906004016124df565b602060405180830381600087803b158015611abc57600080fd5b505af1925050508015611aec575060408051601f3d908101601f19168201909252611ae9918101906123f4565b60015b611b9957611af861293c565b806308c379a01415611b325750611b0d612958565b80611b185750611b34565b8060405162461bcd60e51b81526004016105a1919061263e565b505b60405162461bcd60e51b815260206004820152603460248201527f455243313135353a207472616e7366657220746f206e6f6e20455243313135356044820152732932b1b2b4bb32b91034b6b83632b6b2b73a32b960611b60648201526084016105a1565b6001600160e01b0319811663bc197c8160e01b14611a555760405162461bcd60e51b81526004016105a190612651565b6000611bd58284612835565b9392505050565b6008805460009182611bed836128b5565b9091555050600854604080514260208201526bffffffffffffffffffffffff193360601b169181019190915260548101919091526074016040516020818303038152906040528051906020012060001c905090565b6060611c4f82600a611e67565b905060005b600a811015611cc05760408051602080820186905281830184905282518083038401815260609092019092528051910120611c91906002906128d0565b828281518110611ca357611ca3612910565b602090810291909101015280611cb8816128b5565b915050611c54565b50919050565b600080805b8351811015611d1657838181518110611ce657611ce6612910565b602002602001015160011415611d0457611d01826001612809565b91505b80611d0e816128b5565b915050611ccb565b5092915050565b611d2984848484611f1b565b60008381526003602052604081208054849290611d47908490612809565b909155505050505050565b60408051600180825281830190925260609160009190602080830190803683370190505090508281600081518110611d8c57611d8c612910565b602090810291909101015292915050565b6001600160a01b0384163b156114b55760405163f23a6e6160e01b81526001600160a01b0385169063f23a6e6190611de1908990899088908890889060040161253d565b602060405180830381600087803b158015611dfb57600080fd5b505af1925050508015611e2b575060408051601f3d908101601f19168201909252611e28918101906123f4565b60015b611e3757611af861293c565b6001600160e01b0319811663f23a6e6160e01b14611a555760405162461bcd60e51b81526004016105a190612651565b6060816001600160401b03811115611e8157611e81612926565b604051908082528060200260200182016040528015611eaa578160200160208202803683370190505b50905060005b82811015611d165760408051602080820187905281830184905282518083038401815260609092019092528051910120611eec906002906128d0565b828281518110611efe57611efe612910565b602090810291909101015280611f13816128b5565b915050611eb0565b6001600160a01b038416611f7b5760405162461bcd60e51b815260206004820152602160248201527f455243313135353a206d696e7420746f20746865207a65726f206164647265736044820152607360f81b60648201526084016105a1565b33611f8c8160008761196e88611d52565b6000848152602081815260408083206001600160a01b038916845290915281208054859290611fbc908490612809565b909155505060408051858152602081018590526001600160a01b0380881692600092918516917fc3d58168c5ae7397731d063d5bbf3d657854427343f4c083240f7aacaa2d0f62910160405180910390a46107d981600087878787611d9d565b600082601f83011261202d57600080fd5b8135602061203a826127e6565b6040516120478282612889565b8381528281019150858301600585901b8701840188101561206757600080fd5b60005b858110156120865781358452928401929084019060010161206a565b5090979650505050505050565b600082601f8301126120a457600080fd5b81356001600160401b038111156120bd576120bd612926565b6040516120d4601f8301601f191660200182612889565b8181528460208386010111156120e957600080fd5b816020850160208301376000918101602001919091529392505050565b60006020828403121561211857600080fd5b8135611bd5816129e1565b60006020828403121561213557600080fd5b8151611bd5816129e1565b6000806040838503121561215357600080fd5b823561215e816129e1565b9150602083013561216e816129e1565b809150509250929050565b600080600080600060a0868803121561219157600080fd5b853561219c816129e1565b945060208601356121ac816129e1565b935060408601356001600160401b03808211156121c857600080fd5b6121d489838a0161201c565b945060608801359150808211156121ea57600080fd5b6121f689838a0161201c565b9350608088013591508082111561220c57600080fd5b5061221988828901612093565b9150509295509295909350565b600080600080600060a0868803121561223e57600080fd5b8535612249816129e1565b94506020860135612259816129e1565b9350604086013592506060860135915060808601356001600160401b0381111561228257600080fd5b61221988828901612093565b600080604083850312156122a157600080fd5b82356122ac816129e1565b9150602083013561216e816129f6565b600080604083850312156122cf57600080fd5b82356122da816129e1565b946020939093013593505050565b600080604083850312156122fb57600080fd5b82356001600160401b038082111561231257600080fd5b818501915085601f83011261232657600080fd5b81356020612333826127e6565b6040516123408282612889565b8381528281019150858301600585901b870184018b101561236057600080fd5b600096505b8487101561238c578035612378816129e1565b835260019690960195918301918301612365565b50965050860135925050808211156123a357600080fd5b506123b08582860161201c565b9150509250929050565b6000602082840312156123cc57600080fd5b8151611bd5816129f6565b6000602082840312156123e957600080fd5b8135611bd581612a04565b60006020828403121561240657600080fd5b8151611bd581612a04565b60006020828403121561242357600080fd5b5035919050565b60006020828403121561243c57600080fd5b5051919050565b600081518084526020808501945080840160005b8381101561247357815187529582019590820190600101612457565b509495945050505050565b6000815180845260005b818110156124a457602081850181015186830182015201612488565b818111156124b6576000602083870101525b50601f01601f19169290920160200192915050565b6001600160a01b0391909116815260200190565b6001600160a01b0386811682528516602082015260a06040820181905260009061250b90830186612443565b828103606084015261251d8186612443565b90508281036080840152612531818561247e565b98975050505050505050565b6001600160a01b03868116825285166020820152604081018490526060810183905260a0608082018190526000906125779083018461247e565b979650505050505050565b6001600160a01b03929092168252602082015260400190565b6000602080830181845280855180835260408601915060408160051b870101925083870160005b828110156125f057603f198886030184526125de85835161247e565b945092850192908501906001016125c2565b5092979650505050505050565b602081526000611bd56020830184612443565b6040815260006126236040830185612443565b82810360208401526126358185612443565b95945050505050565b602081526000611bd5602083018461247e565b60208082526028908201527f455243313135353a204552433131353552656365697665722072656a656374656040820152676420746f6b656e7360c01b606082015260800190565b60208082526032908201527f496e76616c696420636c6173732e204d757374206265206265747765656e20306040820152711030b7321018981034b731b63ab9b4bb329760711b606082015260800190565b60208082526025908201527f455243313135353a207472616e7366657220746f20746865207a65726f206164604082015264647265737360d81b606082015260800190565b6020808252602a908201527f455243313135353a20696e73756666696369656e742062616c616e636520666f60408201526939103a3930b739b332b960b11b606082015260800190565b6020808252818101527f4f776e61626c653a2063616c6c6572206973206e6f7420746865206f776e6572604082015260600190565b6020808252601f908201527f5265656e7472616e637947756172643a207265656e7472616e742063616c6c00604082015260600190565b60006001600160401b038211156127ff576127ff612926565b5060051b60200190565b6000821982111561281c5761281c6128e4565b500190565b600082612830576128306128fa565b500490565b600081600019048311821515161561284f5761284f6128e4565b500290565b600181811c9082168061286857607f821691505b60208210811415611cc057634e487b7160e01b600052602260045260246000fd5b601f8201601f191681016001600160401b03811182821017156128ae576128ae612926565b6040525050565b60006000198214156128c9576128c96128e4565b5060010190565b6000826128df576128df6128fa565b500690565b634e487b7160e01b600052601160045260246000fd5b634e487b7160e01b600052601260045260246000fd5b634e487b7160e01b600052603260045260246000fd5b634e487b7160e01b600052604160045260246000fd5b600060033d11156129555760046000803e5060005160e01c5b90565b600060443d10156129665790565b6040516003193d81016004833e81513d6001600160401b03816024840111818411171561299557505050505090565b82850191508151818111156129ad5750505050505090565b843d87010160208285010111156129c75750505050505090565b6129d660208286010187612889565b509095945050505050565b6001600160a01b0381168114610fb157600080fd5b8015158114610fb157600080fd5b6001600160e01b031981168114610fb157600080fdfea26469706673582212209e0418d70ec3f14aaf05245583158f293863e74faa061fbf47062d2f8d9d190b64736f6c63430008070033",
  "linkReferences": {},
  "deployedLinkReferences": {}
}