{
  "_format": "hh-sol-artifact-1",
  "contractName": "DarkBits",
  "sourceName": "contracts/polygon/DarkBits.sol",
  "abi": [
    {
      "inputs": [],
      "stateMutability": "nonpayable",
      "type": "constructor"
    },
    {
      "anonymous": false,
      "inputs": [
        {
          "indexed": true,
          "internalType": "address",
          "name": "account",
          "type": "address"
        },
        {
          "indexed": true,
          "internalType": "address",
          "name": "operator",
          "type": "address"
        },
        {
          "indexed": false,
          "internalType": "bool",
          "name": "approved",
          "type": "bool"
        }
      ],
      "name": "ApprovalForAll",
      "type": "event"
    },
    {
      "anonymous": false,
      "inputs": [
        {
          "indexed": true,
          "internalType": "address",
          "name": "minter",
          "type": "address"
        },
        {
          "indexed": true,
          "internalType": "uint256",
          "name": "entityClass",
          "type": "uint256"
        },
        {
          "indexed": true,
          "internalType": "uint256",
          "name": "amount",
          "type": "uint256"
        }
      ],
      "name": "EntityMinted",
      "type": "event"
    },
    {
      "anonymous": false,
      "inputs": [
        {
          "indexed": true,
          "internalType": "address",
          "name": "claimer",
          "type": "address"
        },
        {
          "indexed": true,
          "internalType": "uint256",
          "name": "amount",
          "type": "uint256"
        }
      ],
      "name": "MintRewardClaimed",
      "type": "event"
    },
    {
      "anonymous": false,
      "inputs": [
        {
          "indexed": true,
          "internalType": "address",
          "name": "previousOwner",
          "type": "address"
        },
        {
          "indexed": true,
          "internalType": "address",
          "name": "newOwner",
          "type": "address"
        }
      ],
      "name": "OwnershipTransferred",
      "type": "event"
    },
    {
      "anonymous": false,
      "inputs": [
        {
          "indexed": true,
          "internalType": "address",
          "name": "operator",
          "type": "address"
        },
        {
          "indexed": true,
          "internalType": "address",
          "name": "from",
          "type": "address"
        },
        {
          "indexed": true,
          "internalType": "address",
          "name": "to",
          "type": "address"
        },
        {
          "indexed": false,
          "internalType": "uint256[]",
          "name": "ids",
          "type": "uint256[]"
        },
        {
          "indexed": false,
          "internalType": "uint256[]",
          "name": "values",
          "type": "uint256[]"
        }
      ],
      "name": "TransferBatch",
      "type": "event"
    },
    {
      "anonymous": false,
      "inputs": [
        {
          "indexed": true,
          "internalType": "address",
          "name": "operator",
          "type": "address"
        },
        {
          "indexed": true,
          "internalType": "address",
          "name": "from",
          "type": "address"
        },
        {
          "indexed": true,
          "internalType": "address",
          "name": "to",
          "type": "address"
        },
        {
          "indexed": false,
          "internalType": "uint256",
          "name": "id",
          "type": "uint256"
        },
        {
          "indexed": false,
          "internalType": "uint256",
          "name": "value",
          "type": "uint256"
        }
      ],
      "name": "TransferSingle",
      "type": "event"
    },
    {
      "anonymous": false,
      "inputs": [
        {
          "indexed": false,
          "internalType": "string",
          "name": "value",
          "type": "string"
        },
        {
          "indexed": true,
          "internalType": "uint256",
          "name": "id",
          "type": "uint256"
        }
      ],
      "name": "URI",
      "type": "event"
    },
    {
      "inputs": [],
      "name": "MINIMUM_MINTS_FOR_CLAIM",
      "outputs": [
        {
          "internalType": "uint256",
          "name": "",
          "type": "uint256"
        }
      ],
      "stateMutability": "view",
      "type": "function"
    },
    {
      "inputs": [],
      "name": "MINTS_SINCE_CLAIM_THRESHOLD",
      "outputs": [
        {
          "internalType": "uint256",
          "name": "",
          "type": "uint256"
        }
      ],
      "stateMutability": "view",
      "type": "function"
    },
    {
      "inputs": [],
      "name": "MINT_LIMIT",
      "outputs": [
        {
          "internalType": "uint256",
          "name": "",
          "type": "uint256"
        }
      ],
      "stateMutability": "view",
      "type": "function"
    },
    {
      "inputs": [],
      "name": "MINT_PRICE",
      "outputs": [
        {
          "internalType": "uint256",
          "name": "",
          "type": "uint256"
        }
      ],
      "stateMutability": "view",
      "type": "function"
    },
    {
      "inputs": [],
      "name": "TRANSFER_TO_TREASURY_MINT_THRESHOLD",
      "outputs": [
        {
          "internalType": "uint256",
          "name": "",
          "type": "uint256"
        }
      ],
      "stateMutability": "view",
      "type": "function"
    },
    {
      "inputs": [
        {
          "internalType": "address",
          "name": "account",
          "type": "address"
        },
        {
          "internalType": "uint256",
          "name": "id",
          "type": "uint256"
        }
      ],
      "name": "balanceOf",
      "outputs": [
        {
          "internalType": "uint256",
          "name": "",
          "type": "uint256"
        }
      ],
      "stateMutability": "view",
      "type": "function"
    },
    {
      "inputs": [
        {
          "internalType": "address[]",
          "name": "accounts",
          "type": "address[]"
        },
        {
          "internalType": "uint256[]",
          "name": "ids",
          "type": "uint256[]"
        }
      ],
      "name": "balanceOfBatch",
      "outputs": [
        {
          "internalType": "uint256[]",
          "name": "",
          "type": "uint256[]"
        }
      ],
      "stateMutability": "view",
      "type": "function"
    },
    {
      "inputs": [],
      "name": "claimMintReward",
      "outputs": [],
      "stateMutability": "nonpayable",
      "type": "function"
    },
    {
      "inputs": [
        {
          "internalType": "uint256",
          "name": "id",
          "type": "uint256"
        }
      ],
      "name": "exists",
      "outputs": [
        {
          "internalType": "bool",
          "name": "",
          "type": "bool"
        }
      ],
      "stateMutability": "view",
      "type": "function"
    },
    {
      "inputs": [],
      "name": "getAMATICBalance",
      "outputs": [
        {
          "internalType": "uint256",
          "name": "",
          "type": "uint256"
        }
      ],
      "stateMutability": "view",
      "type": "function"
    },
    {
      "inputs": [
        {
          "internalType": "uint256",
          "name": "tokenId",
          "type": "uint256"
        }
      ],
      "name": "getDefaultName",
      "outputs": [
        {
          "internalType": "string",
          "name": "",
          "type": "string"
        }
      ],
      "stateMutability": "view",
      "type": "function"
    },
    {
      "inputs": [],
      "name": "getDefaultNames",
      "outputs": [
        {
          "internalType": "string[]",
          "name": "",
          "type": "string[]"
        }
      ],
      "stateMutability": "view",
      "type": "function"
    },
    {
      "inputs": [
        {
          "internalType": "address",
          "name": "minterAddress",
          "type": "address"
        }
      ],
      "name": "getMintsForAddress",
      "outputs": [
        {
          "internalType": "uint256",
          "name": "",
          "type": "uint256"
        }
      ],
      "stateMutability": "view",
      "type": "function"
    },
    {
      "inputs": [],
      "name": "getRewardAvailability",
      "outputs": [
        {
          "internalType": "bool",
          "name": "",
          "type": "bool"
        }
      ],
      "stateMutability": "view",
      "type": "function"
    },
    {
      "inputs": [
        {
          "internalType": "address",
          "name": "account",
          "type": "address"
        },
        {
          "internalType": "address",
          "name": "operator",
          "type": "address"
        }
      ],
      "name": "isApprovedForAll",
      "outputs": [
        {
          "internalType": "bool",
          "name": "",
          "type": "bool"
        }
      ],
      "stateMutability": "view",
      "type": "function"
    },
    {
      "inputs": [],
      "name": "mintCounter",
      "outputs": [
        {
          "internalType": "uint256",
          "name": "",
          "type": "uint256"
        }
      ],
      "stateMutability": "view",
      "type": "function"
    },
    {
      "inputs": [],
      "name": "newMintsSinceClaim",
      "outputs": [
        {
          "internalType": "uint256",
          "name": "",
          "type": "uint256"
        }
      ],
      "stateMutability": "view",
      "type": "function"
    },
    {
      "inputs": [],
      "name": "owner",
      "outputs": [
        {
          "internalType": "address",
          "name": "",
          "type": "address"
        }
      ],
      "stateMutability": "view",
      "type": "function"
    },
    {
      "inputs": [],
      "name": "renounceOwnership",
      "outputs": [],
      "stateMutability": "nonpayable",
      "type": "function"
    },
    {
      "inputs": [],
      "name": "requestMint",
      "outputs": [],
      "stateMutability": "payable",
      "type": "function"
    },
    {
      "inputs": [
        {
          "internalType": "address",
          "name": "from",
          "type": "address"
        },
        {
          "internalType": "address",
          "name": "to",
          "type": "address"
        },
        {
          "internalType": "uint256[]",
          "name": "ids",
          "type": "uint256[]"
        },
        {
          "internalType": "uint256[]",
          "name": "amounts",
          "type": "uint256[]"
        },
        {
          "internalType": "bytes",
          "name": "data",
          "type": "bytes"
        }
      ],
      "name": "safeBatchTransferFrom",
      "outputs": [],
      "stateMutability": "nonpayable",
      "type": "function"
    },
    {
      "inputs": [
        {
          "internalType": "address",
          "name": "from",
          "type": "address"
        },
        {
          "internalType": "address",
          "name": "to",
          "type": "address"
        },
        {
          "internalType": "uint256",
          "name": "id",
          "type": "uint256"
        },
        {
          "internalType": "uint256",
          "name": "amount",
          "type": "uint256"
        },
        {
          "internalType": "bytes",
          "name": "data",
          "type": "bytes"
        }
      ],
      "name": "safeTransferFrom",
      "outputs": [],
      "stateMutability": "nonpayable",
      "type": "function"
    },
    {
      "inputs": [
        {
          "internalType": "address",
          "name": "operator",
          "type": "address"
        },
        {
          "internalType": "bool",
          "name": "approved",
          "type": "bool"
        }
      ],
      "name": "setApprovalForAll",
      "outputs": [],
      "stateMutability": "nonpayable",
      "type": "function"
    },
    {
      "inputs": [
        {
          "internalType": "bytes4",
          "name": "interfaceId",
          "type": "bytes4"
        }
      ],
      "name": "supportsInterface",
      "outputs": [
        {
          "internalType": "bool",
          "name": "",
          "type": "bool"
        }
      ],
      "stateMutability": "view",
      "type": "function"
    },
    {
      "inputs": [
        {
          "internalType": "uint256",
          "name": "id",
          "type": "uint256"
        }
      ],
      "name": "totalSupply",
      "outputs": [
        {
          "internalType": "uint256",
          "name": "",
          "type": "uint256"
        }
      ],
      "stateMutability": "view",
      "type": "function"
    },
    {
      "inputs": [
        {
          "internalType": "address",
          "name": "newOwner",
          "type": "address"
        }
      ],
      "name": "transferOwnership",
      "outputs": [],
      "stateMutability": "nonpayable",
      "type": "function"
    },
    {
      "inputs": [],
      "name": "transferToTreasury",
      "outputs": [],
      "stateMutability": "nonpayable",
      "type": "function"
    },
    {
      "inputs": [
        {
          "internalType": "uint256",
          "name": "",
          "type": "uint256"
        }
      ],
      "name": "uri",
      "outputs": [
        {
          "internalType": "string",
          "name": "",
          "type": "string"
        }
      ],
      "stateMutability": "view",
      "type": "function"
    }
  ],
  "bytecode": "0x60098054758df3aad3a84da6b69a4da8aec3ea40d9091b2ac4000062010000600160b01b0319909116178155600a80546001600160a01b031916732ae55e69dac53b9b03dc7fb6274153a6f94f7d061790556101e0908152680456c656d656e7420360bc1b610200526080908152600f6102208181526e10db185cdcc80c48115b195b595b9d608a1b6102405260a0526102608181526e10db185cdcc80c88115b195b595b9d608a1b6102805260c0526102a08181526e10db185cdcc80cc8115b195b595b9d608a1b6102c05260e0526102e08181526e10db185cdcc80d08115b195b595b9d608a1b61030052610100526103208181526e10db185cdcc80d48115b195b595b9d608a1b61034052610120526103609081526e10db185cdcc80d88115b195b595b9d608a1b610380526101405260106103a08181526f436c6173732037204f7267616e69736d60801b6103c052610160526103e08181526f436c6173732038204f7267616e69736d60801b61040052610180526104209081526f436c6173732039204f7267616e69736d60801b610440526101a0526104a0604052600b6104608181526a04f7267616e69736d2031360ac1b610480526101c052620001cd91600e9162000347565b5060408051610160810182526001808252602082018190526002928201839052600a606083018190526080830152606460a0830181905260c0830152600560e083015261010082019290925261012081018290526101408101919091526200023a90600f90600b620003ab565b503480156200024857600080fd5b506040805160208101909152600081526200026381620002dc565b5060016004556200027433620002f5565b600d80546001600160a01b031990811673d05e3e715d945b59290df0ae8ef85c1bdb68474417909155600b805490911673beadf48d62acc944a06eeae0a9054a90e5a7dc971790556000600881905560068190556007556009805461ffff1916905562000530565b8051620002f1906002906020840190620003fc565b5050565b600580546001600160a01b038381166001600160a01b0319831681179093556040519116919082907f8be0079c531659141344cd1fd0a4f28419497f9722a3daafe3b4186f6b6457e090600090a35050565b82805482825590600052602060002090810192821562000399579160200282015b8281111562000399578251805162000388918491602090910190620003fc565b509160200191906001019062000368565b50620003a792915062000479565b5090565b828054828255906000526020600020908101928215620003ee579160200282015b82811115620003ee578251829060ff16905591602001919060010190620003cc565b50620003a79291506200049a565b8280546200040a90620004f3565b90600052602060002090601f0160209004810192826200042e5760008555620003ee565b82601f106200044957805160ff1916838001178555620003ee565b82800160010185558215620003ee579182015b82811115620003ee5782518255916020019190600101906200045c565b80821115620003a7576000620004908282620004b1565b5060010162000479565b5b80821115620003a757600081556001016200049b565b508054620004bf90620004f3565b6000825580601f10620004d0575050565b601f016020900490600052602060002090810190620004f091906200049a565b50565b600181811c908216806200050857607f821691505b602082108114156200052a57634e487b7160e01b600052602260045260246000fd5b50919050565b61289380620005406000396000f3fe6080604052600436106101765760003560e01c80636ff86162116100cc578063afb7bed91161007a578063afb7bed914610420578063bd85b03914610428578063c002d23d14610455578063c92960cf14610471578063e985e9c514610486578063f242432a146104cf578063f2fde38b146104ef57600080fd5b80636ff861621461034f578063715018a6146103645780637401a3dd146103795780638da5cb5b146103af57806390542c1e146103d5578063998ffbd0146103ea578063a22cb4651461040057600080fd5b80633fc3023c116101295780633fc3023c1461027957806346aa52ce1461029b578063485593ba146102b15780634e1273f4146102c65780634f558e79146102f357806352c7f8dc1461032257806353a911361461033757600080fd5b8062fdd58e1461017b57806301ffc9a7146101ae57806302775240146101de5780630e89341c146101f55780632e87e09d146102225780632eb2c2d61461024257806335d89bd314610264575b600080fd5b34801561018757600080fd5b5061019b61019636600461214b565b61050f565b6040519081526020015b60405180910390f35b3480156101ba57600080fd5b506101ce6101c9366004612266565b6105a6565b60405190151581526020016101a5565b3480156101ea57600080fd5b5061019b620186a081565b34801561020157600080fd5b506102156102103660046122a0565b6105f8565b6040516101a591906124cd565b34801561022e57600080fd5b5061021561023d3660046122a0565b61068c565b34801561024e57600080fd5b5061026261025d366004612008565b61072b565b005b34801561027057600080fd5b5061019b6107c2565b34801561028557600080fd5b5061028e61084e565b6040516101a5919061242a565b3480156102a757600080fd5b5061019b60065481565b3480156102bd57600080fd5b5061019b600a81565b3480156102d257600080fd5b506102e66102e1366004612177565b610927565b6040516101a5919061248c565b3480156102ff57600080fd5b506101ce61030e3660046122a0565b600090815260036020526040902054151590565b34801561032e57600080fd5b50610262610a50565b34801561034357600080fd5b5060095460ff166101ce565b34801561035b57600080fd5b50610262610c02565b34801561037057600080fd5b50610262610f99565b34801561038557600080fd5b5061019b610394366004611f95565b6001600160a01b031660009081526010602052604090205490565b3480156103bb57600080fd5b506005546001600160a01b03166040516101a5919061235a565b3480156103e157600080fd5b5061019b606481565b3480156103f657600080fd5b5061019b60075481565b34801561040c57600080fd5b5061026261041b36600461211d565b610fcf565b6102626110a6565b34801561043457600080fd5b5061019b6104433660046122a0565b60009081526003602052604090205490565b34801561046157600080fd5b5061019b671bc16d674ec8000081565b34801561047d57600080fd5b5061019b611177565b34801561049257600080fd5b506101ce6104a1366004611fcf565b6001600160a01b03918216600090815260016020908152604080832093909416825291909152205460ff1690565b3480156104db57600080fd5b506102626104ea3660046120b5565b611188565b3480156104fb57600080fd5b5061026261050a366004611f95565b61120f565b60006001600160a01b0383166105805760405162461bcd60e51b815260206004820152602b60248201527f455243313135353a2062616c616e636520717565727920666f7220746865207a60448201526a65726f206164647265737360a81b60648201526084015b60405180910390fd5b506000908152602081815260408083206001600160a01b03949094168352929052205490565b60006001600160e01b03198216636cdb3d1360e11b14806105d757506001600160e01b031982166303a24d0760e21b145b806105f257506301ffc9a760e01b6001600160e01b03198316145b92915050565b60606002805461060790612691565b80601f016020809104026020016040519081016040528092919081815260200182805461063390612691565b80156106805780601f1061065557610100808354040283529160200191610680565b820191906000526020600020905b81548152906001019060200180831161066357829003601f168201915b50505050509050919050565b6060610697826112a7565b15156001146107035760405162461bcd60e51b815260206004820152603260248201527f496e76616c696420636c6173732e204d757374206265206265747765656e20306044820152711030b7321018981034b731b63ab9b4bb329760711b6064820152608401610577565b600e828154811061071657610716612753565b90600052602060002001805461060790612691565b6001600160a01b038516331480610747575061074785336104a1565b6107ae5760405162461bcd60e51b815260206004820152603260248201527f455243313135353a207472616e736665722063616c6c6572206973206e6f74206044820152711bdddb995c881b9bdc88185c1c1c9bdd995960721b6064820152608401610577565b6107bb85858585856112c2565b5050505050565b6009546040516370a0823160e01b81526000916201000090046001600160a01b0316906370a08231906107f990309060040161235a565b60206040518083038186803b15801561081157600080fd5b505afa158015610825573d6000803e3d6000fd5b505050506040513d601f19601f8201168201806040525081019061084991906122b9565b905090565b6060600e805480602002602001604051908101604052809291908181526020016000905b8282101561091e57838290600052602060002001805461089190612691565b80601f01602080910402602001604051908101604052809291908181526020018280546108bd90612691565b801561090a5780601f106108df5761010080835404028352916020019161090a565b820191906000526020600020905b8154815290600101906020018083116108ed57829003601f168201915b505050505081526020019060010190610872565b50505050905090565b6060815183511461098c5760405162461bcd60e51b815260206004820152602960248201527f455243313135353a206163636f756e747320616e6420696473206c656e677468604482015268040dad2e6dac2e8c6d60bb1b6064820152608401610577565b600083516001600160401b038111156109a7576109a7612769565b6040519080825280602002602001820160405280156109d0578160200160208202803683370190505b50905060005b8451811015610a4857610a1b8582815181106109f4576109f4612753565b6020026020010151858381518110610a0e57610a0e612753565b602002602001015161050f565b828281518110610a2d57610a2d612753565b6020908102919091010152610a41816126f8565b90506109d6565b509392505050565b60026004541415610a735760405162461bcd60e51b8152600401610577906125ec565b600260045533600090815260106020526040902054600a1115610af75760405162461bcd60e51b815260206004820152603660248201527f596f75206d757374206d696e74206174206c656173742031302074696d6573206044820152753a379038bab0b634b33c903337b9103932bbb0b9321760511b6064820152608401610577565b620186a06006541415610b7657610b0c61149f565b1515600114610b695760405162461bcd60e51b8152602060048201526024808201527f546865726520617265206e6f206d6f7265207265776172647320617661696c616044820152633136329760e11b6064820152608401610577565b610b716114f2565b610bfb565b60095460ff161515600114610bf35760405162461bcd60e51b815260206004820152603d60248201527f5472616e73616374696f6e207468726573686f6c64206e6f74206d65742e205260448201527f6577617264732063757272656e746c7920756e617661696c61626c652e0000006064820152608401610577565b610bfb6114f2565b6001600455565b6005546001600160a01b03163314610c2c5760405162461bcd60e51b8152600401610577906125b7565b610c3a6005620186a061265e565b6006541015610cb15760405162461bcd60e51b815260206004820152603d60248201527f5468726573686f6c64206e6f74206d65742e205472616e736665722063616e6e60448201527f6f7420626520636f6d706c6574656420617420746869732074696d652e0000006064820152608401610577565b6009546040516370a0823160e01b81526000916201000090046001600160a01b0316906370a0823190610ce890309060040161235a565b60206040518083038186803b158015610d0057600080fd5b505afa158015610d14573d6000803e3d6000fd5b505050506040513d601f19601f82011682018060405250810190610d3891906122b9565b11610d915760405162461bcd60e51b815260206004820152602360248201527f436f6e74726163742068617320656d70747920616d4d415449432062616c616e60448201526231b29760e91b6064820152608401610577565b600954600a546040516370a0823160e01b81526001600160a01b036201000090930483169263095ea7b392169083906370a0823190610dd490309060040161235a565b60206040518083038186803b158015610dec57600080fd5b505afa158015610e00573d6000803e3d6000fd5b505050506040513d601f19601f82011682018060405250810190610e2491906122b9565b6040518363ffffffff1660e01b8152600401610e41929190612411565b602060405180830381600087803b158015610e5b57600080fd5b505af1158015610e6f573d6000803e3d6000fd5b505050506040513d601f19601f82011682018060405250810190610e939190612249565b50600954600a546040516370a0823160e01b81526001600160a01b036201000090930483169263a9059cbb92169083906370a0823190610ed790309060040161235a565b60206040518083038186803b158015610eef57600080fd5b505afa158015610f03573d6000803e3d6000fd5b505050506040513d601f19601f82011682018060405250810190610f2791906122b9565b6040518363ffffffff1660e01b8152600401610f44929190612411565b602060405180830381600087803b158015610f5e57600080fd5b505af1158015610f72573d6000803e3d6000fd5b505050506040513d601f19601f82011682018060405250810190610f969190612249565b50565b6005546001600160a01b03163314610fc35760405162461bcd60e51b8152600401610577906125b7565b610fcd60006117aa565b565b336001600160a01b038316141561103a5760405162461bcd60e51b815260206004820152602960248201527f455243313135353a2073657474696e6720617070726f76616c20737461747573604482015268103337b91039b2b63360b91b6064820152608401610577565b3360008181526001602090815260408083206001600160a01b03871680855290835292819020805460ff191686151590811790915590519081529192917f17307eab39ab6107e8899845ad3d59bd9653f200f220920489ca2b5937696c31910160405180910390a35050565b600260045414156110c95760405162461bcd60e51b8152600401610577906125ec565b6002600455600654620186a0116111225760405162461bcd60e51b815260206004820152601b60248201527f4461726b2042697473206d696e74696e672066696e69736865642100000000006044820152606401610577565b34671bc16d674ec80000111561116f5760405162461bcd60e51b815260206004820152601260248201527126bab9ba1039b2b73210191026a0aa24a19760711b6044820152606401610577565b610bfb6117fc565b6111856005620186a061265e565b81565b6001600160a01b0385163314806111a457506111a485336104a1565b6112025760405162461bcd60e51b815260206004820152602960248201527f455243313135353a2063616c6c6572206973206e6f74206f776e6572206e6f7260448201526808185c1c1c9bdd995960ba1b6064820152608401610577565b6107bb85858585856118e4565b6005546001600160a01b031633146112395760405162461bcd60e51b8152600401610577906125b7565b6001600160a01b03811661129e5760405162461bcd60e51b815260206004820152602660248201527f4f776e61626c653a206e6577206f776e657220697320746865207a65726f206160448201526564647265737360d01b6064820152608401610577565b610f96816117aa565b6000600a8211156112ba57506000919050565b506001919050565b81518351146113245760405162461bcd60e51b815260206004820152602860248201527f455243313135353a2069647320616e6420616d6f756e7473206c656e677468206044820152670dad2e6dac2e8c6d60c31b6064820152608401610577565b6001600160a01b03841661134a5760405162461bcd60e51b815260040161057790612528565b3360005b845181101561143157600085828151811061136b5761136b612753565b60200260200101519050600085838151811061138957611389612753565b602090810291909101810151600084815280835260408082206001600160a01b038e1683529093529190912054909150818110156113d95760405162461bcd60e51b81526004016105779061256d565b6000838152602081815260408083206001600160a01b038e8116855292528083208585039055908b16825281208054849290611416908490612646565b925050819055505050508061142a906126f8565b905061134e565b50846001600160a01b0316866001600160a01b0316826001600160a01b03167f4a39dc06d4c0dbc64b70af90fd698a233a518aa5d07e595d983b8c0526c8f7fb878760405161148192919061249f565b60405180910390a4611497818787878787611a0a565b505050505050565b60095460009060ff610100909104161515600114156114be5750600090565b620186a06006541480156114d25750600047115b156114ec57506009805461ff001916610100179055600190565b50600090565b600047116115425760405162461bcd60e51b815260206004820152601a60248201527f436f6e74726163742062616c616e636520697320656d7074792e0000000000006044820152606401610577565b47600061155b6005611555600a8561265e565b90611b75565b90506000600d60009054906101000a90046001600160a01b03166001600160a01b0316630261bf8b6040518163ffffffff1660e01b815260040160206040518083038186803b1580156115ad57600080fd5b505afa1580156115c1573d6000803e3d6000fd5b505050506040513d601f19601f820116820180604052508101906115e59190611fb2565b600b5460405163474cf53d60e01b81526001600160a01b0380841660048301523060248301526000604483015292935091169063474cf53d9085906064016000604051808303818588803b15801561163c57600080fd5b505af1158015611650573d6000803e3d6000fd5b505060095460405163095ea7b360e01b8152620100009091046001600160a01b0316935063095ea7b3925061168c915033908690600401612411565b602060405180830381600087803b1580156116a657600080fd5b505af11580156116ba573d6000803e3d6000fd5b505050506040513d601f19601f820116820180604052508101906116de9190612249565b5060095460405163a9059cbb60e01b8152620100009091046001600160a01b03169063a9059cbb906117169033908690600401612411565b602060405180830381600087803b15801561173057600080fd5b505af1158015611744573d6000803e3d6000fd5b505050506040513d601f19601f820116820180604052508101906117689190612249565b50600060078190556009805460ff19169055604051839133917fbe36bcfc51443d8893a6578da2e5eb021fdfbf5745d543fa97fb6bb0e871e82e9190a3505050565b600580546001600160a01b038381166001600160a01b0319831681179093556040519116919082907f8be0079c531659141344cd1fd0a4f28419497f9722a3daafe3b4186f6b6457e090600090a35050565b600061180e611809611b88565b611bee565b90506000600f828154811061182557611825612753565b9060005260206000200154905061184d33838360405180602001604052806000815250611bfb565b33600090815260106020526040902054611868906001612646565b33600090815260106020526040902055600654611886906001612646565b600655600754611897906001612646565b60078190556064116118b1576009805460ff191660011790555b6040518190839033907f4d5a2cea2b0f70440c644d5b685214f7f50d250bd9fc27c724268cca179b41d390600090a45050565b6001600160a01b03841661190a5760405162461bcd60e51b815260040161057790612528565b3361192381878761191a88611c30565b6107bb88611c30565b6000848152602081815260408083206001600160a01b038a168452909152902054838110156119645760405162461bcd60e51b81526004016105779061256d565b6000858152602081815260408083206001600160a01b038b81168552925280832087850390559088168252812080548692906119a1908490612646565b909155505060408051868152602081018690526001600160a01b03808916928a821692918616917fc3d58168c5ae7397731d063d5bbf3d657854427343f4c083240f7aacaa2d0f62910160405180910390a4611a01828888888888611c7b565b50505050505050565b6001600160a01b0384163b156114975760405163bc197c8160e01b81526001600160a01b0385169063bc197c8190611a4e908990899088908890889060040161236e565b602060405180830381600087803b158015611a6857600080fd5b505af1925050508015611a98575060408051601f3d908101601f19168201909252611a9591810190612283565b60015b611b4557611aa461277f565b806308c379a01415611ade5750611ab961279b565b80611ac45750611ae0565b8060405162461bcd60e51b815260040161057791906124cd565b505b60405162461bcd60e51b815260206004820152603460248201527f455243313135353a207472616e7366657220746f206e6f6e20455243313135356044820152732932b1b2b4bb32b91034b6b83632b6b2b73a32b960611b6064820152608401610577565b6001600160e01b0319811663bc197c8160e01b14611a015760405162461bcd60e51b8152600401610577906124e0565b6000611b818284612672565b9392505050565b6008805460009182611b99836126f8565b9091555050600854604080514260208201526bffffffffffffffffffffffff193360601b169181019190915260548101919091526074016040516020818303038152906040528051906020012060001c905090565b60006105f282600a611d45565b611c0784848484611daa565b60008381526003602052604081208054849290611c25908490612646565b909155505050505050565b60408051600180825281830190925260609160009190602080830190803683370190505090508281600081518110611c6a57611c6a612753565b602090810291909101015292915050565b6001600160a01b0384163b156114975760405163f23a6e6160e01b81526001600160a01b0385169063f23a6e6190611cbf90899089908890889088906004016123cc565b602060405180830381600087803b158015611cd957600080fd5b505af1925050508015611d09575060408051601f3d908101601f19168201909252611d0691810190612283565b60015b611d1557611aa461277f565b6001600160e01b0319811663f23a6e6160e01b14611a015760405162461bcd60e51b8152600401610577906124e0565b6000805b82811015611da35760408051602080820187905281830184905282518083038401815260609092019092528051910120611d8590600290612713565b611d8f9083612646565b915080611d9b816126f8565b915050611d49565b5092915050565b6001600160a01b038416611e0a5760405162461bcd60e51b815260206004820152602160248201527f455243313135353a206d696e7420746f20746865207a65726f206164647265736044820152607360f81b6064820152608401610577565b33611e1b8160008761191a88611c30565b6000848152602081815260408083206001600160a01b038916845290915281208054859290611e4b908490612646565b909155505060408051858152602081018590526001600160a01b0380881692600092918516917fc3d58168c5ae7397731d063d5bbf3d657854427343f4c083240f7aacaa2d0f62910160405180910390a46107bb81600087878787611c7b565b600082601f830112611ebc57600080fd5b81356020611ec982612623565b604051611ed682826126cc565b8381528281019150858301600585901b87018401881015611ef657600080fd5b60005b85811015611f1557813584529284019290840190600101611ef9565b5090979650505050505050565b600082601f830112611f3357600080fd5b81356001600160401b03811115611f4c57611f4c612769565b604051611f63601f8301601f1916602001826126cc565b818152846020838601011115611f7857600080fd5b816020850160208301376000918101602001919091529392505050565b600060208284031215611fa757600080fd5b8135611b8181612824565b600060208284031215611fc457600080fd5b8151611b8181612824565b60008060408385031215611fe257600080fd5b8235611fed81612824565b91506020830135611ffd81612824565b809150509250929050565b600080600080600060a0868803121561202057600080fd5b853561202b81612824565b9450602086013561203b81612824565b935060408601356001600160401b038082111561205757600080fd5b61206389838a01611eab565b9450606088013591508082111561207957600080fd5b61208589838a01611eab565b9350608088013591508082111561209b57600080fd5b506120a888828901611f22565b9150509295509295909350565b600080600080600060a086880312156120cd57600080fd5b85356120d881612824565b945060208601356120e881612824565b9350604086013592506060860135915060808601356001600160401b0381111561211157600080fd5b6120a888828901611f22565b6000806040838503121561213057600080fd5b823561213b81612824565b91506020830135611ffd81612839565b6000806040838503121561215e57600080fd5b823561216981612824565b946020939093013593505050565b6000806040838503121561218a57600080fd5b82356001600160401b03808211156121a157600080fd5b818501915085601f8301126121b557600080fd5b813560206121c282612623565b6040516121cf82826126cc565b8381528281019150858301600585901b870184018b10156121ef57600080fd5b600096505b8487101561221b57803561220781612824565b8352600196909601959183019183016121f4565b509650508601359250508082111561223257600080fd5b5061223f85828601611eab565b9150509250929050565b60006020828403121561225b57600080fd5b8151611b8181612839565b60006020828403121561227857600080fd5b8135611b8181612847565b60006020828403121561229557600080fd5b8151611b8181612847565b6000602082840312156122b257600080fd5b5035919050565b6000602082840312156122cb57600080fd5b5051919050565b600081518084526020808501945080840160005b83811015612302578151875295820195908201906001016122e6565b509495945050505050565b6000815180845260005b8181101561233357602081850181015186830182015201612317565b81811115612345576000602083870101525b50601f01601f19169290920160200192915050565b6001600160a01b0391909116815260200190565b6001600160a01b0386811682528516602082015260a06040820181905260009061239a908301866122d2565b82810360608401526123ac81866122d2565b905082810360808401526123c0818561230d565b98975050505050505050565b6001600160a01b03868116825285166020820152604081018490526060810183905260a0608082018190526000906124069083018461230d565b979650505050505050565b6001600160a01b03929092168252602082015260400190565b6000602080830181845280855180835260408601915060408160051b870101925083870160005b8281101561247f57603f1988860301845261246d85835161230d565b94509285019290850190600101612451565b5092979650505050505050565b602081526000611b8160208301846122d2565b6040815260006124b260408301856122d2565b82810360208401526124c481856122d2565b95945050505050565b602081526000611b81602083018461230d565b60208082526028908201527f455243313135353a204552433131353552656365697665722072656a656374656040820152676420746f6b656e7360c01b606082015260800190565b60208082526025908201527f455243313135353a207472616e7366657220746f20746865207a65726f206164604082015264647265737360d81b606082015260800190565b6020808252602a908201527f455243313135353a20696e73756666696369656e742062616c616e636520666f60408201526939103a3930b739b332b960b11b606082015260800190565b6020808252818101527f4f776e61626c653a2063616c6c6572206973206e6f7420746865206f776e6572604082015260600190565b6020808252601f908201527f5265656e7472616e637947756172643a207265656e7472616e742063616c6c00604082015260600190565b60006001600160401b0382111561263c5761263c612769565b5060051b60200190565b6000821982111561265957612659612727565b500190565b60008261266d5761266d61273d565b500490565b600081600019048311821515161561268c5761268c612727565b500290565b600181811c908216806126a557607f821691505b602082108114156126c657634e487b7160e01b600052602260045260246000fd5b50919050565b601f8201601f191681016001600160401b03811182821017156126f1576126f1612769565b6040525050565b600060001982141561270c5761270c612727565b5060010190565b6000826127225761272261273d565b500690565b634e487b7160e01b600052601160045260246000fd5b634e487b7160e01b600052601260045260246000fd5b634e487b7160e01b600052603260045260246000fd5b634e487b7160e01b600052604160045260246000fd5b600060033d11156127985760046000803e5060005160e01c5b90565b600060443d10156127a95790565b6040516003193d81016004833e81513d6001600160401b0381602484011181841117156127d857505050505090565b82850191508151818111156127f05750505050505090565b843d870101602082850101111561280a5750505050505090565b612819602082860101876126cc565b509095945050505050565b6001600160a01b0381168114610f9657600080fd5b8015158114610f9657600080fd5b6001600160e01b031981168114610f9657600080fdfea26469706673582212204dec81f31dddda589e41b482b67453cd1be95134e27ee70fe49a3ff12bd8bd9264736f6c63430008070033",
  "linkReferences": {},
  "deployedLinkReferences": {}
}